{
  "contractName": "Organization",
  "abi": [
    {
      "constant": false,
      "inputs": [
        {
          "name": "proposalId",
          "type": "uint256"
        }
      ],
      "name": "vote",
      "outputs": [
        {
          "name": "result",
          "type": "bool"
        }
      ],
      "payable": false,
      "stateMutability": "nonpayable",
      "type": "function"
    },
    {
      "constant": true,
      "inputs": [
        {
          "name": "",
          "type": "uint256"
        }
      ],
      "name": "proposals",
      "outputs": [
        {
          "name": "title",
          "type": "string"
        },
        {
          "name": "description",
          "type": "string"
        },
        {
          "name": "executed",
          "type": "bool"
        },
        {
          "name": "numberOfVotes",
          "type": "uint256"
        }
      ],
      "payable": false,
      "stateMutability": "view",
      "type": "function"
    },
    {
      "constant": true,
      "inputs": [
        {
          "name": "",
          "type": "address"
        }
      ],
      "name": "members",
      "outputs": [
        {
          "name": "",
          "type": "bool"
        }
      ],
      "payable": false,
      "stateMutability": "view",
      "type": "function"
    },
    {
      "constant": false,
      "inputs": [
        {
          "name": "title",
          "type": "string"
        },
        {
          "name": "description",
          "type": "string"
        }
      ],
      "name": "addProposal",
      "outputs": [
        {
          "name": "result",
          "type": "bool"
        }
      ],
      "payable": false,
      "stateMutability": "nonpayable",
      "type": "function"
    },
    {
      "constant": true,
      "inputs": [],
      "name": "numProposals",
      "outputs": [
        {
          "name": "",
          "type": "uint256"
        }
      ],
      "payable": false,
      "stateMutability": "view",
      "type": "function"
    },
    {
      "constant": true,
      "inputs": [
        {
          "name": "",
          "type": "uint256"
        }
      ],
      "name": "proposalExist",
      "outputs": [
        {
          "name": "",
          "type": "bool"
        }
      ],
      "payable": false,
      "stateMutability": "view",
      "type": "function"
    },
    {
      "constant": true,
      "inputs": [],
      "name": "owner",
      "outputs": [
        {
          "name": "",
          "type": "address"
        }
      ],
      "payable": false,
      "stateMutability": "view",
      "type": "function"
    },
    {
      "constant": true,
      "inputs": [],
      "name": "getWinnerProposal",
      "outputs": [
        {
          "name": "winnerProposalId",
          "type": "uint256"
        }
      ],
      "payable": false,
      "stateMutability": "view",
      "type": "function"
    },
    {
      "constant": false,
      "inputs": [
        {
          "name": "newMember",
          "type": "address"
        }
      ],
      "name": "addMember",
      "outputs": [
        {
          "name": "result",
          "type": "bool"
        }
      ],
      "payable": false,
      "stateMutability": "nonpayable",
      "type": "function"
    },
    {
      "inputs": [
        {
          "name": "minQuorum",
          "type": "uint256"
        },
        {
          "name": "maxNumOfMembers",
          "type": "uint256"
        }
      ],
      "payable": false,
      "stateMutability": "nonpayable",
      "type": "constructor"
    },
    {
      "anonymous": false,
      "inputs": [
        {
          "indexed": false,
          "name": "ProposalAdded",
          "type": "uint256"
        }
      ],
      "name": "ProposalAdded",
      "type": "event"
    }
  ],
  "bytecode": "0x606060405233600360006101000a81548173ffffffffffffffffffffffffffffffffffffffff021916908373ffffffffffffffffffffffffffffffffffffffff160217905550341561005057600080fd5b604051604080610a5383398101604052808051906020019091908051906020019091905050816004819055508060058190555050506109bf806100946000396000f300606060405260043610610099576000357c0100000000000000000000000000000000000000000000000000000000900463ffffffff1680630121b93f1461009e578063013cf08b146100d957806308ae4b0c1461022d57806323d1c95e1461027e578063400e3949146103365780634aeebceb1461035f5780638da5cb5b1461039a578063a3c1885b146103ef578063ca6d56dc14610418575b600080fd5b34156100a957600080fd5b6100bf6004808035906020019091905050610469565b604051808215151515815260200191505060405180910390f35b34156100e457600080fd5b6100fa60048080359060200190919050506105da565b604051808060200180602001851515151581526020018481526020018381038352878181546001816001161561010002031660029004815260200191508054600181600116156101000203166002900480156101975780601f1061016c57610100808354040283529160200191610197565b820191906000526020600020905b81548152906001019060200180831161017a57829003601f168201915b505083810382528681815460018160011615610100020316600290048152602001915080546001816001161561010002031660029004801561021a5780601f106101ef5761010080835404028352916020019161021a565b820191906000526020600020905b8154815290600101906020018083116101fd57829003601f168201915b5050965050505050505060405180910390f35b341561023857600080fd5b610264600480803573ffffffffffffffffffffffffffffffffffffffff16906020019091905050610615565b604051808215151515815260200191505060405180910390f35b341561028957600080fd5b61031c600480803590602001908201803590602001908080601f0160208091040260200160405190810160405280939291908181526020018383808284378201915050505050509190803590602001908201803590602001908080601f01602080910402602001604051908101604052809392919081815260200183838082843782019150505050505091905050610635565b604051808215151515815260200191505060405180910390f35b341561034157600080fd5b61034961077d565b6040518082815260200191505060405180910390f35b341561036a57600080fd5b6103806004808035906020019091905050610783565b604051808215151515815260200191505060405180910390f35b34156103a557600080fd5b6103ad6107a3565b604051808273ffffffffffffffffffffffffffffffffffffffff1673ffffffffffffffffffffffffffffffffffffffff16815260200191505060405180910390f35b34156103fa57600080fd5b6104026107c9565b6040518082815260200191505060405180910390f35b341561042357600080fd5b61044f600480803573ffffffffffffffffffffffffffffffffffffffff16906020019091905050610889565b604051808215151515815260200191505060405180910390f35b6000806000803373ffffffffffffffffffffffffffffffffffffffff1673ffffffffffffffffffffffffffffffffffffffff16815260200190815260200160002060009054906101000a900460ff1615156104c357600080fd5b6002600084815260200190815260200160002060009054906101000a900460ff1615156104ef57600080fd5b6001600084815260200190815260200160002090508060040160003373ffffffffffffffffffffffffffffffffffffffff1673ffffffffffffffffffffffffffffffffffffffff16815260200190815260200160002060009054906101000a900460ff1615151561055f57600080fd5b806003016000815480929190600101919050555060018160040160003373ffffffffffffffffffffffffffffffffffffffff1673ffffffffffffffffffffffffffffffffffffffff16815260200190815260200160002060006101000a81548160ff0219169083151502179055506001915081915050919050565b6001602052806000526040600020600091509050806000019080600101908060020160009054906101000a900460ff16908060030154905084565b60006020528060005260406000206000915054906101000a900460ff1681565b60008060003373ffffffffffffffffffffffffffffffffffffffff1673ffffffffffffffffffffffffffffffffffffffff16815260200190815260200160002060009054906101000a900460ff16151561068e57600080fd5b600660008154809291906001019190505550608060405190810160405280848152602001838152602001600015158152602001600081525060016000600654815260200190815260200160002060008201518160000190805190602001906106f79291906108ee565b5060208201518160010190805190602001906107149291906108ee565b5060408201518160020160006101000a81548160ff02191690831515021790555060608201518160030155905050600160026000600654815260200190815260200160002060006101000a81548160ff0219169083151502179055506001905080905092915050565b60065481565b60026020528060005260406000206000915054906101000a900460ff1681565b600360009054906101000a900473ffffffffffffffffffffffffffffffffffffffff1681565b60008060008060003373ffffffffffffffffffffffffffffffffffffffff1673ffffffffffffffffffffffffffffffffffffffff16815260200190815260200160002060009054906101000a900460ff16151561082557600080fd5b60009150600190505b6006548111151561088157816001600083815260200190815260200160002060030154111561087457600160008281526020019081526020016000206003015491508092505b808060010191505061082e565b829250505090565b600060016000808473ffffffffffffffffffffffffffffffffffffffff1673ffffffffffffffffffffffffffffffffffffffff16815260200190815260200160002060006101000a81548160ff02191690831515021790555060019050809050919050565b828054600181600116156101000203166002900490600052602060002090601f016020900481019282601f1061092f57805160ff191683800117855561095d565b8280016001018555821561095d579182015b8281111561095c578251825591602001919060010190610941565b5b50905061096a919061096e565b5090565b61099091905b8082111561098c576000816000905550600101610974565b5090565b905600a165627a7a72305820f4615667c139c027f3ab4f332a5fbf1298303e8e7d9810d408e954734cc6a4250029",
  "source": "pragma solidity ^0.4.18;\n\ncontract Organization {\n\n    mapping (address => bool) public members;\n    \n    mapping (uint => Proposal) public proposals;\n\n    mapping(uint => bool) public proposalExist;\n\n    address public owner = msg.sender;\n\n    //Proposal[] public proposals; //implicitly get proposals \n        \n    //rules\n    uint minimumQuorum; \n    \n    uint maximumNumberOfMembers;\n\n    uint public numProposals;\n\n    event ProposalAdded(uint ProposalAdded);\n\n    struct Proposal {\n        //address owner; do we care?\n        string title;\n        string description;\n        bool executed;\n        uint numberOfVotes;\n        mapping (address => bool) voted;\n    }\n    \n    modifier onlyMembers {\n        require(members[msg.sender]);\n        _;\n    }\n\n    modifier onlyOwner {\n        require(msg.sender == owner);\n        _;\n    }\n\n    function Organization(uint minQuorum, uint maxNumOfMembers) public {\n        minimumQuorum = minQuorum;\n        maximumNumberOfMembers = maxNumOfMembers;\n    }\n\n    /// @dev maybe onlyOwner?\n    function addMember(address newMember) public returns(bool result){ \n        members[newMember] = true;\n        result = true;\n        return result;\n    }\n\n    /// @dev validate minimum quorum?\n    function addProposal(string title, string description) onlyMembers public returns(bool result) {       \n        numProposals++;\n        proposals[numProposals] = Proposal(title, description, false, 0);\n        proposalExist[numProposals] = true;\n        result = true;\n        //emit ProposalAdded(numProposals);    \n        return result;\n    }\n\n    function vote(uint proposalId) onlyMembers public returns(bool result){\n        require(proposalExist[proposalId]);        \n        Proposal storage p = proposals[proposalId];\n        require(!p.voted[msg.sender]);\n        p.numberOfVotes++;\n        p.voted[msg.sender] = true;\n        result = true;\n        return result;\n    }\n\n    function getWinnerProposal() onlyMembers public view returns (uint winnerProposalId){\n        //TODO: Validate minimum quorum?\n        uint winningVoteCount = 0;\n        for (uint p = 1; p <= numProposals; p++) {\n            if (proposals[p].numberOfVotes > winningVoteCount) {\n                winningVoteCount = proposals[p].numberOfVotes;\n                winnerProposalId = p;\n            }\n        }\n        return winnerProposalId;\n    }\n}",
  "sourcePath": "/Users/edsonalcala/PocsLife/react-uport/contracts/Organization.sol",
  "compiler": {
    "name": "solc",
    "version": "0.4.18+commit.9cf6e910.Emscripten.clang"
  },
  "schemaVersion": "1.0.1",
  "updatedAt": "2018-04-06T23:17:09.319Z"
}